:100000000C9434000C9446000C9446000C9446006A
:100010000C9446000C9446000C9446000C94460048
:100020000C9446000C9446000C9446000C94460038
:100030000C9446000C9446000C9446000C94460028
:100040000C9446000C9446000C9446000C94460018
:100050000C9446000C9446000C9446000C94460008
:100060000C9446000C94460011241FBECFEFD8E03C
:10007000DEBFCDBF12E0A0E0B1E001C01D92A0390B
:10008000B107E1F70E94E1000C94FC000C94000021
:100090001092C50088E08093C4008093C10086E080
:1000A0008093C20008959091C00095FFFCCF80938B
:1000B000C6000895282F392FF90180E008C09091DB
:1000C000C00095FFFCCF91919093C6008F5F86177B
:1000D000B0F308958091C00085FFFCCF6093C60007
:1000E0008091C00085FFFCCF70E01092C600809127
:1000F000C00085FFFCCF990F880B982F8093C60016
:100100008091C00085FFFCCF770F660B762F609340
:10011000C60008959091C00095FFFCCFE82FF0E055
:10012000DF01AA0FBB1FAA0FBB1FA050BF4F8C91AE
:100130008093C6008091C00085FFFCCF1092C6005E
:100140008091C00085FFFCCFDF01AA0FBB1FAA0F63
:10015000BB1FA050BF4F8C9190E0990F880B982F38
:100160008093C6008091C00085FFFCCFEE0FFF1F7B
:10017000EE0FFF1FE050FF4F808190E0990F880B3A
:10018000982F8093C60008958091C00085FFFCCF12
:100190008FEF8093C6008091C00085FFFCCF8FEF6A
:1001A0008093C6008091C00085FFFCCF8FEF8093C5
:1001B000C6008091C00085FFFCCF8FEF8093C60002
:1001C00008951F930E944800E0E0F1E02EEC822F9A
:1001D00090E0A0E0B0E081939193A193B1932F5F61
:1001E0002233A9F70E94C40010E0812F0E948A00E8
:0C01F0001F5F1436D1F7E8CFF894FFCF62
:00000001FF
